:020000040000FA
:100000000C945D000C9485000C9485000C94850084
:100010000C9485000C9485000C9485000C9485004C
:100020000C9485000C9485000C9485000C9485003C
:100030000C9485000C9485000C9485000C9485002C
:100040000C9428050C9485000C94F6040C94D004B0
:100050000C9485000C9485000C9485000C9485000C
:100060000C9472050C948500000000080002010049
:100070000003040700000000000000000000000072
:10008000250028002B0000000000240027002A0083
:10009000040404040404040402020202020203032E
:1000A0000303030301020408102040800102040836
:1000B00010200102040810208D0611241FBECFEF6E
:1000C000D8E0DEBFCDBF11E0A0E0B1E0EAE5F6E1A7
:1000D00002C005900D92AA35B107D9F722E0AAE532
:1000E000B1E001C01D92AD3AB207E1F710E0CDE5F5
:1000F000D0E004C02197FE010E94250BCC35D1072A
:10010000C9F70E94D5060C942B0B0C94000090E0CC
:10011000FC01EC55FF4F249180579F4FFC018491C7
:10012000882399F090E0880F991FFC01EA57FF4F50
:10013000A591B491FC01E458FF4F859194918FB73C
:10014000F894EC91E22BEC938FBF0895AF92BF929D
:10015000CF92DF92EF92FF920F931F93CF93DF9393
:100160006C017B018B01040F151FEB015E01AE18C2
:10017000BF08C017D10759F06991D601ED91FC91E4
:100180000190F081E02DC6010995892B79F7C50111
:10019000DF91CF911F910F91FF90EF90DF90CF9063
:1001A000BF90AF900895FC01538D448D252F30E012
:1001B000842F90E0821B930B541710F0CF96089574
:1001C00001970895FC01918D828D981761F0A28DA1
:1001D000AE0FBF2FB11D5D968C91928D9F5F9F7367
:1001E000928F90E008958FEF9FEF0895FC01918D1D
:1001F000828D981731F0828DE80FF11D858D90E08A
:1002000008958FEF9FEF0895FC01918D228D892F26
:1002100090E0805C9F4F821B91098F73992708950E
:1002200088EF91E00E94040121E0892B09F420E08D
:10023000822F089580E090E0892B29F00E94100120
:1002400081110C9400000895FC01A48DA80FB92F12
:10025000B11DA35ABF4F2C91848D90E001968F73EE
:100260009927848FA689B7892C93A089B1898C910D
:10027000837080648C93938D848D981306C002885C
:10028000F389E02D80818F7D80830895EF92FF9226
:100290000F931F93CF93DF93EC0181E0888F9B8DA9
:1002A0008C8D98131AC0E889F989808185FF15C063
:1002B0009FB7F894EE89FF896083E889F989808186
:1002C0008370806480839FBF81E090E0DF91CF9155
:1002D0001F910F91FF90EF900895F62E0B8D10E077
:1002E0000F5F1F4F0F731127E02E8C8D8E110CC0E6
:1002F0000FB607FCFACFE889F989808185FFF5CF31
:10030000CE010E942401F1CFEB8DEC0FFD2FF11DEA
:10031000E35AFF4FF0829FB7F8940B8FEA89FB896D
:1003200080818062CFCFCF93DF93EC01888D8823CB
:10033000B9F0AA89BB89E889F9898C9185FD03C048
:10034000808186FD0DC00FB607FCF7CF8C9185FF2D
:10035000F2CF808185FFEDCFCE010E942401E9CF4D
:10036000DF91CF91089590E0FC01E859FF4F24916F
:10037000FC01EC55FF4F3491FC01E057FF4FE49135
:10038000EE23C9F0222339F0233001F1A8F4213003
:1003900019F1223029F1F0E0EE0FFF1FE458FF4F72
:1003A000A591B4918FB7F894EC91611126C0309566
:1003B0003E233C938FBF08952730A9F02830C9F021
:1003C000243049F7809180008F7D03C080918000A8
:1003D0008F7780938000DFCF84B58F7784BDDBCFAC
:1003E00084B58F7DFBCF8091B0008F778093B00074
:1003F000D2CF8091B0008F7DF9CF3E2BDACF3FB7BF
:10040000F8948091F4019091F501A091F601B091DA
:10041000F70126B5A89B05C02F3F19F00196A11D35
:10042000B11D3FBFBA2FA92F982F8827BC01CD013E
:10043000620F711D811D911D42E0660F771F881F9D
:10044000991F4A95D1F708958F929F92AF92BF92CC
:10045000CF92DF92EF92FF924B015C010E94FF016D
:100460006B017C010E94FF016C197D098E099F09B7
:10047000683E734081059105A8F321E0821A910836
:10048000A108B10888EEC80E83E0D81EE11CF11C5B
:1004900081149104A104B10429F7FF90EF90DF903B
:1004A000CF90BF90AF909F908F90089508951F9325
:1004B000CF93DF93C1E0C0935B01882399F1D09182
:1004C000B8001091BA008091BC008A7B8093BC0078
:1004D00060E082E10E94B30160E083E10E94B30129
:1004E0001092C501C093C40110929F0161E082E1A6
:1004F0000E94B30161E083E10E94B3018091B900E1
:100500008E7F8093B9008091B9008D7F8093B90070
:1005100088E48093B80085E48093BC001093BA000F
:10052000D093B800DF91CF911F91089520917C0165
:10053000260F3327331F21323105ECF42091C501FA
:10054000FC0190E080E0243069F082E00895A09101
:100550007C012191AC01445A5E4FA40FB52FB11D0F
:100560002C930196861798F380917C01680F609315
:100570007C0180E0089581E0089508958FEF9FEF5A
:1005800008958FEF9FEF089580915A0190E0919523
:10059000819591090895CF92DF92EF92FF920F9388
:1005A0001F93CF93DF937C01CB018A012091CB0174
:1005B000222389F0EB016B01C40ED51ECC15DD059D
:1005C00069F06991D701ED91FC910190F081E02DE6
:1005D000C7010995F3CF642F0E949602C801DF91ED
:1005E000CF911F910F91FF90EF90DF90CF900895E2
:1005F000CF93DF931F92CDB7DEB769832091CB01F4
:100600002223F9F02091EE01203258F021E030E071
:10061000FC013383228390E080E00F90DF91CF9143
:1006200008958091CC01E82FF0E0E353FE4F9981CB
:1006300090838F5F8093CC018093EE0181E090E006
:10064000ECCF61E0CE0101960E949602F7CFCF92E7
:10065000DF92EF92FF920F931F93CF93DF93FC01F2
:10066000C48121E02093CB01C093ED011092CC0115
:100670001092EE018385682B85E992E00E94F802D2
:10068000D091EE01D13208F092C00E94FF016B01BF
:100690007C018091C501811165C082E08093C50114
:1006A00081E08093C4018FEF8093C3011092C20157
:1006B000D093C101ADECB1E0E1EAF1E080E0D81304
:1006C00085C01092A0018091A001CC0FC82BC093CF
:1006D000A00180919F01813009F07CC010929F01A0
:1006E0000E94FF016B017C018091A0018093BB00FF
:1006F0008091C7019091C801A091C901B091CA0130
:10070000892B8A2B8B2B99F00E94FF010091C70146
:100710001091C8012091C9013091CA016C197D095D
:100720008E099F090617170728073907E0F18091FE
:10073000BC0083FDD9CF85EC8093BC000E94FF01F3
:100740006B017C018091C501823009F445C0809124
:10075000C3018F3F61F18091C301803241F18091EB
:10076000C30125C08091C7019091C801A091C90122
:10077000B091CA01892B8A2B8B2B09F48ACF0E9456
:10078000FF010091C7011091C8012091C90130916A
:10079000CA016C197D098E099F09061717072807DA
:1007A000390708F076CF8091C6010E945702109257
:1007B000CC011092EE011092CB01DF91CF911F91ED
:1007C0000F91FF90EF90DF90CF9008959D919193BE
:1007D0008F5F75CF85EEB0CF8091C7019091C80132
:1007E000A091C901B091CA01892B8A2B8B2B09F4E6
:1007F000A9CF0E94FF010091C7011091C80120916B
:10080000C9013091CA016C197D098E099F0906172B
:1008100017072807390708F095CFC5CF90E080E08B
:100820000895FC0101900020E9F73197AF01481BC2
:10083000590BBC0181EA92E00C94A6008F929F9222
:10084000AF92BF920F931F93CF93DF93CDB7DEB7D5
:10085000A1970FB6F894DEBF0FBECDBF19A24230EC
:1008600008F44AE08E010F5D1F4F842E912CB12CAD
:10087000A12CA50194010E942309E62FB901CA0108
:10088000EA30F4F4E05DD801EE938D01232B242BA4
:10089000252B79F790E080E0109719F0CD010E94A8
:1008A0001104A1960FB6F894DEBF0FBECDBFDF9145
:1008B000CF911F910F91BF90AF909F908F9008950F
:1008C000E95CE1CF0F931F93CF938C01C62F0E9459
:1008D00027036C2F6460C8010E9427036C2F6B7F75
:1008E000C8010E94270383EC90E00197F1F7CF91B4
:1008F0001F910F9108950F931F93CF93DF938C0156
:10090000D62FC42F607F642B0E94620480E1D89FA1
:10091000B00111246C2BC801DF91CF911F910F9171
:100920000C94620441E00E947B0481E090E0089511
:1009300085ED8093BC008091C7019091C801A09182
:10094000C901B091CA010796A11DB11D23E0B6955A
:10095000A795979587952A95D1F72091BC0024FDFE
:1009600003C01092C50108954091C7015091C8017C
:100970006091C9017091CA01452B462B472B69F341
:100980000097A105B10541F025E32A95F1F7000094
:100990000197A109B109E1CF8091C6010C945702DA
:1009A0001F920F920FB60F9211242F933F934F93E4
:1009B0005F936F937F938F939F93AF93BF93EF93C7
:1009C000FF9388EF91E00E942401FF91EF91BF9186
:1009D000AF919F918F917F916F915F914F913F91D7
:1009E0002F910F900FBE0F901F9018951F920F928E
:1009F0000FB60F9211242F938F939F93EF93FF9332
:100A0000E0910802F09109028081E0910E02F091DC
:100A10000F0282FD1BC09081809111028F5F8F7346
:100A200020911202821741F0E0911102F0E0E850AB
:100A3000FE4F958F80931102FF91EF919F918F91BF
:100A40002F910F900FBE0F901F9018958081F4CFBB
:100A50001F920F920FB60F9211242F933F938F93F3
:100A60009F93AF93BF938091F0019091F101A0917A
:100A7000F201B091F3013091EF0123E0230F2D3704
:100A800058F50196A11DB11D2093EF018093F0014F
:100A90009093F101A093F201B093F3018091F401DE
:100AA0009091F501A091F601B091F7010196A11D79
:100AB000B11D8093F4019093F501A093F601B093DA
:100AC000F701BF91AF919F918F913F912F910F901F
:100AD0000FBE0F901F90189526E8230F0296A11DB8
:100AE000B11DD2CF1F920F920FB60F9211242F93E8
:100AF0003F934F935F936F937F938F939F93AF93A6
:100B0000BF93EF93FF938091B900887F803609F4FB
:100B10004AC0F0F5883209F4A5C018F5803109F40F
:100B200099C0B8F4882309F4F5C0883009F492C05C
:100B3000FF91EF91BF91AF919F918F917F916F91B5
:100B40005F914F913F912F910F900FBE0F901F908B
:100B50001895883109F486C0803251F78093C3011B
:100B600014C0803409F49BC040F48033B9F3883357
:100B7000F9F68093C30185ECAEC0803509F483C0DB
:100B8000883509F494C0883499F60E949804D0CF2F
:100B9000883909F48AC038F5883729F050F4883646
:100BA00011F0803729F683E08093C50110929E01F1
:100BB00055C0883809F479C0803919F0803809F0B7
:100BC000B7CF80919E01803208F06FC0E0919E0106
:100BD00081E08E0F80939E018091BB00F0E0E2588F
:100BE000FE4F80833BC0803B39F0D0F4803A09F45B
:100BF00077C0883A09F09CCF84E08093C5011092B9
:100C00007D0110927C01F0E0E0E0099580917C018B
:100C100081110FC081E080937C0110925C0109C0BA
:100C2000803C09F4A8CF883C09F4A5CF883B09F0A3
:100C30007FCFE0917D0181E08E0F80937D01F0E018
:100C4000E45AFE4F80818093BB0090917D0180919A
:100C50007C0129C08091A0018093BB0085EC80932A
:100C6000BC0066CF9091C2018091C101981758F5E0
:100C7000E091C20181E08E0F8093C201F0E0EF5558
:100C8000FE4F8081E9CFE091C20181E08E0F809319
:100C9000C2018091BB00F0E0EF55FE4F8083909140
:100CA000C2018091C1019817C8F285E8D8CFE091C0
:100CB000C20181E08E0F8093C2018091BB00F0E001
:100CC000EF55FE4F80838091C40181115ECF81E09A
:100CD00080939F0184EA8093BC001092C50128CFC5
:100CE00085EC8093BC001092C50180919E018032FA
:100CF00030F4E0919E01F0E0E258FE4F10826091E6
:100D00009E0170E08EE791E0F0E0E0E0099510923E
:100D10009E010ECF1092C30138CFE8EFF1E01382AD
:100D2000128288EE93E0A0E0B0E084839583A683EE
:100D3000B7832CE031E03183208325EC30E0358728
:100D4000248724EC30E03787268720EC30E0318B95
:100D5000208B21EC30E0338B228B22EC30E0358B82
:100D6000248B26EC30E0378B268B118E128E138E5F
:100D7000148EE5E9F2E01382128284839583A683C0
:100D8000B7838EE191E091838083E1EAF2E0138200
:100D9000128280E391E09183808387E2848380E103
:100DA000818782E0828713860895CF93DF93CDB742
:100DB000DEB728970FB6F894DEBF0FBECDBF78948C
:100DC00084B5826084BD84B5816084BD85B5826050
:100DD00085BD85B5816085BD80916E008160809301
:100DE0006E0010928100809181008260809381006A
:100DF000809181008160809381008091800081607A
:100E0000809380008091B10084608093B1008091D4
:100E1000B00081608093B00080917A0084608093FC
:100E20007A0080917A00826080937A0080917A00C3
:100E3000816080937A0080917A00806880937A0044
:100E40001092C10082E00E94870083E00E94870028
:100E50008091A60288608093A60292E0F92EF0921B
:100E6000A90262E370E080E090E00E9424026091B9
:100E7000AC0281EA92E00E94270368EE73E080E012
:100E800090E00E94240260E381EA92E00E94620402
:100E90000BE416E4C8010197F1F760E381EA92E000
:100EA0000E946204C8010197F1F760E381EA92E0D1
:100EB0000E94620483E592E00197F1F760E281EA23
:100EC00092E00E9462046091A602606240E081EAC2
:100ED00092E00E947B0484E08093A70240E06CE0F3
:100EE00081EA92E00E947B0440E061E081EA92E0C6
:100EF0000E947B040BE31FE1C8010197F1F7F09218
:100F0000A80240E066E081EA92E00E947B0440E0B3
:100F100062E081EA92E00E947B04C8010197F1F748
:100F200088E391E00E941104E0910802F091090227
:100F3000F082E0910402F09105021082E091060235
:100F4000F09107028FEC808310921002E0910C0266
:100F5000F0910D0286E08083E0910A02F0910B028D
:100F6000808180618083E0910A02F0910B02808190
:100F700088608083E0910A02F0910B028081806892
:100F80008083E0910A02F0910B0280818F7D808343
:100F900020E4322E00E010E030927C0080917A0054
:100FA000806480937A0080917A0086FDFCCF8091E6
:100FB0007800A0917900BA2FA82F24E630E00E9493
:100FC0001E0B2FEF33E040E050E00E940409CA01FD
:100FD000B9010E94F7096B017C0188E0E0E0F1E0D3
:100FE000DE01119601900D928A95E1F78091A90298
:100FF000EFEF8111E1E0F0E0EE0FFF1F81E090E004
:101000008C0F9D1FE80FF91F6081606840E081EA46
:1010100092E00E947B04A7019601C701B6010E94DD
:10102000190B8823B1F183E491E00E9411048FE44D
:1010300091E00E94110420E030E040EA50E4C70152
:10104000B6010E94C10987FFB8C061E082E00E943A
:10105000B30160E083E00E94B30120E030E040EAA9
:1010600050E4C701B6010E94A70A87FFB5C068EE29
:1010700073E080E090E00E9424020115110509F45C
:101080008BCF0E941001882309F486CF0E940000B4
:1010900083CF46015701E894B7F82FEF3FEF4FE7B2
:1010A0005FE7C501B4010E94190B81110DC02FEF3C
:1010B0003FEF4FE75FE7C501B4010E94C109181671
:1010C0001CF487E491E0B1CF2FEF3FEF4FE75FE4EF
:1010D000C701B6010E94A70A18161CF48BE491E020
:1010E000A4CF2FEF3FEF4FE75FECC701B6010E949F
:1010F000C10987FDF3CF20E030E0A901C701B601A7
:101100000E94C10987FF56C041E06DE281EA92E08A
:101110000E947B04C701B60190582AE037ED43EAEC
:101120005BE30E9455092B013C010E94C6094B015B
:101130005C010E94F5099B01AC01C301B2010E9450
:1011400054092B013C014AE0C501B4010E941E0470
:1011500041E06EE281EA92E00E947B0420E030E010
:1011600040E251E4C301B2010E94AC0A2B013C01F0
:101170000E94C6094B01B12CA12C4AE0C501B40163
:101180000E941E04C501B4010E94F5099B01AC0137
:10119000C301B2010E94540920E030E040E251E472
:1011A0000E94AC0A0E94C60990E080E04AE00E94DA
:1011B0001E043DCFC701B601B0CF20E030E040EAC9
:1011C00050E4C701B6010E94A70A18160CF045CFDB
:1011D00060E082E00E94B30160E082E00E94B3011F
:1011E00061E083E00E94B30120E030E040E650E49B
:1011F000C701B6010E94C10918160CF438CF60E08F
:1012000083E00E94B30133CF052E97FB1EF40094B8
:101210000E941B0957FD07D00E94230907FC03D039
:101220004EF40C941B0950954095309521953F4FF5
:101230004F4F5F4F089590958095709561957F4FC2
:101240008F4F9F4F0895A1E21A2EAA1BBB1BFD01D1
:101250000DC0AA1FBB1FEE1FFF1FA217B307E40795
:10126000F50720F0A21BB30BE40BF50B661F771FED
:10127000881F991F1A9469F76095709580959095CD
:101280009B01AC01BD01CF010895A29FB001B39FA6
:10129000C001A39F700D811D1124911DB29F700D7F
:1012A000811D1124911D08955058BB27AA270E9423
:1012B0006C090C946D0A0E945F0A38F00E94660A5D
:1012C00020F039F49F3F19F426F40C945C0A0EF4D4
:1012D000E095E7FB0C94560AE92F0E947E0A58F32A
:1012E000BA17620773078407950720F079F4A6F50B
:1012F0000C94A00A0EF4E0950B2EBA2FA02D0B0132
:10130000B90190010C01CA01A0011124FF27591B4A
:1013100099F0593F50F4503E68F11A16F040A22F50
:10132000232F342F4427585FF3CF469537952795C1
:10133000A795F0405395C9F77EF41F16BA0B620BC0
:10134000730B840BBAF09150A1F0FF0FBB1F661F07
:10135000771F881FC2F70EC0BA0F621F731F841F4A
:1013600048F4879577956795B795F7959E3F08F070
:10137000B0CF9395880F08F09927EE0F9795879532
:1013800008950E94320A08F481E008950E94860AB6
:1013900088F09F5798F0B92F9927B751B0F0E1F036
:1013A000660F771F881F991F1AF0BA95C9F714C0E6
:1013B000B13091F00E94A00AB1E008950C94A00A07
:1013C000672F782F8827B85F39F0B93FCCF386951F
:1013D00077956795B395D9F73EF49095809570957C
:1013E00061957F4F8F4F9F4F0895E89409C097FBF9
:1013F0003EF490958095709561957F4F8F4F9F4FEC
:101400009923A9F0F92F96E9BB279395F69587952F
:1014100077956795B795F111F8CFFAF4BB0F11F4F2
:1014200060FF1BC06F5F7F4F8F4F9F4F16C0882399
:1014300011F096E911C0772321F09EE8872F762FCF
:1014400005C0662371F096E8862F70E060E02AF010
:101450009A95660F771F881FDAF7880F96958795FC
:1014600097F90895990F0008550FAA0BE0E8FEEFD1
:1014700016161706E807F907C0F012161306E40758
:10148000F50798F0621B730B840B950B39F40A2651
:1014900061F0232B242B252B21F408950A2609F42F
:1014A000A140A6958FEF811D811D089597F99F6733
:1014B00080E870E060E008959FEF80EC08950024DC
:1014C0000A941616170618060906089500240A94A9
:1014D00012161306140605060895092E0394000C2F
:1014E00011F4882352F0BB0F40F4BF2B11F460FFBE
:1014F00004C06F5F7F4F8F4F9F4F089557FD9058E7
:10150000440F551F59F05F3F71F04795880F97FBC7
:10151000991F61F09F3F79F0879508951216130681
:101520001406551FF2CF4695F1DF08C016161706B0
:101530001806991FF1CF86957105610508940895E5
:10154000E894BB2766277727CB0197F908950E9477
:10155000320A08F48FEF08950E94BF0A0C946D0AB6
:101560000E945F0A38F00E94660A20F0952311F06D
:101570000C94560A0C945C0A11240C94A10A0E9443
:101580007E0A70F3959FC1F3950F50E0551F629F3F
:10159000F001729FBB27F00DB11D639FAA27F00DCC
:1015A000B11DAA1F649F6627B00DA11D661F829FF3
:1015B0002227B00DA11D621F739FB00DA11D621FD8
:1015C000839FA00D611D221F749F3327A00D611DF5
:1015D000231F849F600D211D822F762F6A2F1124D7
:1015E0009F5750409AF0F1F088234AF0EE0FFF1F0A
:1015F000BB1F661F771F881F91505040A9F79E3F61
:10160000510580F00C94560A0C94A10A5F3FE4F354
:10161000983ED4F3869577956795B795F795E795B6
:101620009F5FC1F7FE2B880F911D9695879597F9BF
:1016300008950E94320A880B990B08950E9445096B
:10164000B7FF0895821B930B0895EE0FFF1F0590BF
:10165000F491E02D0994F894FFCF000040001400AD
:101660005400000000004601A600D30093010401CD
:10167000E200F60000000000F802CB020E04BD02FA
:10168000C402C102BE02000000009204A6000E04C3
:10169000560250726573737572653A20006E616E02
:1016A00000696E66006F766600206B672F636DC2FF
:0416B000B220200044
:107E0000112484B714BE81FFF0D085E080938100F7
:107E100082E08093C00088E18093C10086E0809377
:107E2000C20080E18093C4008EE0C9D0259A86E02C
:107E300020E33CEF91E0309385002093840096BBD3
:107E4000B09BFECF1D9AA8958150A9F7CC24DD24C4
:107E500088248394B5E0AB2EA1E19A2EF3E0BF2EE7
:107E6000A2D0813461F49FD0082FAFD0023811F036
:107E7000013811F484E001C083E08DD089C08234E0
:107E800011F484E103C0853419F485E0A6D080C0E4
:107E9000853579F488D0E82EFF2485D0082F10E0AE
:107EA000102F00270E291F29000F111F8ED06801E7
:107EB0006FC0863521F484E090D080E0DECF843638
:107EC00009F040C070D06FD0082F6DD080E0C81688
:107ED00080E7D80618F4F601B7BEE895C0E0D1E017
:107EE00062D089930C17E1F7F0E0CF16F0E7DF06D8
:107EF00018F0F601B7BEE89568D007B600FCFDCFD4
:107F0000A601A0E0B1E02C9130E011968C91119780
:107F100090E0982F8827822B932B1296FA010C0160
:107F200087BEE89511244E5F5F4FF1E0A038BF0790
:107F300051F7F601A7BEE89507B600FCFDCF97BE46
:107F4000E89526C08437B1F42ED02DD0F82E2BD052
:107F50003CD0F601EF2C8F010F5F1F4F84911BD097
:107F6000EA94F801C1F70894C11CD11CFA94CF0C13
:107F7000D11C0EC0853739F428D08EE10CD085E9AC
:107F80000AD08FE07ACF813511F488E018D01DD067
:107F900080E101D065CF982F8091C00085FFFCCF94
:107FA0009093C60008958091C00087FFFCCF809118
:107FB000C00084FD01C0A8958091C6000895E0E648
:107FC000F0E098E1908380830895EDDF803219F02E
:107FD00088E0F5DFFFCF84E1DECF1F93182FE3DFCA
:107FE0001150E9F7F2DF1F91089580E0E8DFEE27F6
:047FF000FF270994CA
:027FFE00040479
:00000001FF
